{
  "contractName": "ContentContract",
  "abi": [
    {
      "anonymous": false,
      "inputs": [
        {
          "indexed": false,
          "internalType": "bytes32",
          "name": "originalContentHash",
          "type": "bytes32"
        },
        {
          "indexed": false,
          "internalType": "bytes32",
          "name": "newContentHash",
          "type": "bytes32"
        },
        {
          "indexed": false,
          "internalType": "address",
          "name": "editor",
          "type": "address"
        }
      ],
      "name": "ContentEdited",
      "type": "event"
    },
    {
      "anonymous": false,
      "inputs": [
        {
          "indexed": false,
          "internalType": "bytes32",
          "name": "contentHash",
          "type": "bytes32"
        },
        {
          "indexed": false,
          "internalType": "address",
          "name": "uploader",
          "type": "address"
        }
      ],
      "name": "ContentRegistered",
      "type": "event"
    },
    {
      "inputs": [
        {
          "internalType": "bytes32",
          "name": "",
          "type": "bytes32"
        }
      ],
      "name": "contents",
      "outputs": [
        {
          "internalType": "address",
          "name": "uploader",
          "type": "address"
        },
        {
          "internalType": "bytes32",
          "name": "hash",
          "type": "bytes32"
        },
        {
          "internalType": "uint256",
          "name": "timestamp",
          "type": "uint256"
        }
      ],
      "stateMutability": "view",
      "type": "function"
    },
    {
      "inputs": [
        {
          "internalType": "bytes32",
          "name": "",
          "type": "bytes32"
        },
        {
          "internalType": "uint256",
          "name": "",
          "type": "uint256"
        }
      ],
      "name": "editHistories",
      "outputs": [
        {
          "internalType": "bytes32",
          "name": "",
          "type": "bytes32"
        }
      ],
      "stateMutability": "view",
      "type": "function"
    },
    {
      "inputs": [
        {
          "internalType": "bytes32",
          "name": "_hash",
          "type": "bytes32"
        }
      ],
      "name": "registerContent",
      "outputs": [],
      "stateMutability": "nonpayable",
      "type": "function"
    },
    {
      "inputs": [
        {
          "internalType": "bytes32",
          "name": "_originalHash",
          "type": "bytes32"
        },
        {
          "internalType": "bytes32",
          "name": "_newHash",
          "type": "bytes32"
        }
      ],
      "name": "logEdit",
      "outputs": [],
      "stateMutability": "nonpayable",
      "type": "function"
    }
  ],
  "bytecode": "0x608060405234801561000f575f80fd5b506107fa8061001d5f395ff3fe608060405234801561000f575f80fd5b506004361061004a575f3560e01c80636369f0721461004e578063698472a01461007e578063790880871461009a578063f20ca12c146100b6575b5f80fd5b610068600480360381019061006391906104a8565b6100e8565b60405161007591906104f5565b60405180910390f35b6100986004803603810190610093919061050e565b610113565b005b6100b460048036038101906100af919061054c565b6102cd565b005b6100d060048036038101906100cb919061054c565b6103fa565b6040516100df939291906105c5565b60405180910390f35b6001602052815f5260405f208181548110610101575f80fd5b905f5260205f20015f91509150505481565b5f805f8481526020019081526020015f206002015403610168576040517f08c379a000000000000000000000000000000000000000000000000000000000815260040161015f90610654565b60405180910390fd5b5f805f8381526020019081526020015f2060020154146101bd576040517f08c379a00000000000000000000000000000000000000000000000000000000081526004016101b4906106e2565b60405180910390fd5b60405180606001604052803373ffffffffffffffffffffffffffffffffffffffff168152602001828152602001428152505f808381526020019081526020015f205f820151815f015f6101000a81548173ffffffffffffffffffffffffffffffffffffffff021916908373ffffffffffffffffffffffffffffffffffffffff160217905550602082015181600101556040820151816002015590505060015f8381526020019081526020015f2081908060018154018082558091505060019003905f5260205f20015f90919091909150557f653c44d2399ff811594f127c0ab3b8029ae46ac25797381829ec9cabed3b93248282336040516102c193929190610700565b60405180910390a15050565b5f805f8381526020019081526020015f206002015414610322576040517f08c379a00000000000000000000000000000000000000000000000000000000081526004016103199061077f565b60405180910390fd5b60405180606001604052803373ffffffffffffffffffffffffffffffffffffffff168152602001828152602001428152505f808381526020019081526020015f205f820151815f015f6101000a81548173ffffffffffffffffffffffffffffffffffffffff021916908373ffffffffffffffffffffffffffffffffffffffff16021790555060208201518160010155604082015181600201559050507fa5e72f4774d92dec447fafe42d9b03aa22f9818a8f8e378f52dcf6afd759d31681336040516103ef92919061079d565b60405180910390a150565b5f602052805f5260405f205f91509050805f015f9054906101000a900473ffffffffffffffffffffffffffffffffffffffff16908060010154908060020154905083565b5f80fd5b5f819050919050565b61045481610442565b811461045e575f80fd5b50565b5f8135905061046f8161044b565b92915050565b5f819050919050565b61048781610475565b8114610491575f80fd5b50565b5f813590506104a28161047e565b92915050565b5f80604083850312156104be576104bd61043e565b5b5f6104cb85828601610461565b92505060206104dc85828601610494565b9150509250929050565b6104ef81610442565b82525050565b5f6020820190506105085f8301846104e6565b92915050565b5f80604083850312156105245761052361043e565b5b5f61053185828601610461565b925050602061054285828601610461565b9150509250929050565b5f602082840312156105615761056061043e565b5b5f61056e84828501610461565b91505092915050565b5f73ffffffffffffffffffffffffffffffffffffffff82169050919050565b5f6105a082610577565b9050919050565b6105b081610596565b82525050565b6105bf81610475565b82525050565b5f6060820190506105d85f8301866105a7565b6105e560208301856104e6565b6105f260408301846105b6565b949350505050565b5f82825260208201905092915050565b7f4f726967696e616c20636f6e74656e74206e6f7420726567697374657265642e5f82015250565b5f61063e6020836105fa565b91506106498261060a565b602082019050919050565b5f6020820190508181035f83015261066b81610632565b9050919050565b7f4e657720636f6e74656e7420616c7265616479207265676973746572656420615f8201527f73206f726967696e616c2e000000000000000000000000000000000000000000602082015250565b5f6106cc602b836105fa565b91506106d782610672565b604082019050919050565b5f6020820190508181035f8301526106f9816106c0565b9050919050565b5f6060820190506107135f8301866104e6565b61072060208301856104e6565b61072d60408301846105a7565b949350505050565b7f436f6e74656e7420616c726561647920726567697374657265642e00000000005f82015250565b5f610769601b836105fa565b915061077482610735565b602082019050919050565b5f6020820190508181035f8301526107968161075d565b9050919050565b5f6040820190506107b05f8301856104e6565b6107bd60208301846105a7565b939250505056fea26469706673582212208c960e0a3595ce2583550d1e6d7638c77f2a50ce343585b18fbd7fd864c5c88664736f6c63430008150033",
  "immutableReferences": {},
  "source": "// SPDX-License-Identifier: MIT\npragma solidity ^0.8.0;\n\ncontract ContentContract {\n    struct Content {\n        address uploader;\n        bytes32 hash; // Efficient data type for content hashes\n        uint256 timestamp;\n    }\n\n    // Mapping from content hash to Content\n    mapping(bytes32 => Content) public contents;\n\n    // Mapping from content hash to its edit history hashes\n    mapping(bytes32 => bytes32[]) public editHistories;\n\n    event ContentRegistered(bytes32 contentHash, address uploader);\n    event ContentEdited(bytes32 originalContentHash, bytes32 newContentHash, address editor);\n\n    // Function to register new content\n    function registerContent(bytes32 _hash) public {\n        require(contents[_hash].timestamp == 0, \"Content already registered.\");\n        contents[_hash] = Content(msg.sender, _hash, block.timestamp);\n        emit ContentRegistered(_hash, msg.sender);\n    }\n\n    // Function to log edits of a content\n    function logEdit(bytes32 _originalHash, bytes32 _newHash) public {\n        require(contents[_originalHash].timestamp != 0, \"Original content not registered.\");\n        require(contents[_newHash].timestamp == 0, \"New content already registered as original.\");\n        contents[_newHash] = Content(msg.sender, _newHash, block.timestamp);\n        editHistories[_originalHash].push(_newHash);\n        emit ContentEdited(_originalHash, _newHash, msg.sender);\n    }\n}",
  "sourcePath": "/Users/walterwagude/Desktop/iTransition/gpt-pilot/workspace/Block_Verify/contracts/ContentContract.sol",
  "compiler": {
    "name": "solc",
    "version": "0.8.21+commit.d9974bed.Emscripten.clang"
  },
  "schemaVersion": "3.4.16",
  "updatedAt": "2024-04-24T06:08:37.669Z",
  "devdoc": {
    "kind": "dev",
    "methods": {},
    "version": 1
  },
  "userdoc": {
    "kind": "user",
    "methods": {},
    "version": 1
  }
}