{
  "contractName": "ContentContract",
  "abi": [
    {
      "anonymous": false,
      "inputs": [
        {
          "indexed": false,
          "internalType": "bytes32",
          "name": "originalContentHash",
          "type": "bytes32"
        },
        {
          "indexed": false,
          "internalType": "bytes32",
          "name": "newContentHash",
          "type": "bytes32"
        },
        {
          "indexed": false,
          "internalType": "address",
          "name": "editor",
          "type": "address"
        }
      ],
      "name": "ContentEdited",
      "type": "event"
    },
    {
      "anonymous": false,
      "inputs": [
        {
          "indexed": false,
          "internalType": "bytes32",
          "name": "contentHash",
          "type": "bytes32"
        },
        {
          "indexed": false,
          "internalType": "address",
          "name": "uploader",
          "type": "address"
        }
      ],
      "name": "ContentRegistered",
      "type": "event"
    },
    {
      "inputs": [
        {
          "internalType": "bytes32",
          "name": "",
          "type": "bytes32"
        }
      ],
      "name": "contents",
      "outputs": [
        {
          "internalType": "address",
          "name": "uploader",
          "type": "address"
        },
        {
          "internalType": "bytes32",
          "name": "hash",
          "type": "bytes32"
        },
        {
          "internalType": "uint256",
          "name": "timestamp",
          "type": "uint256"
        }
      ],
      "stateMutability": "view",
      "type": "function",
      "constant": true
    },
    {
      "inputs": [
        {
          "internalType": "bytes32",
          "name": "",
          "type": "bytes32"
        },
        {
          "internalType": "uint256",
          "name": "",
          "type": "uint256"
        }
      ],
      "name": "editHistories",
      "outputs": [
        {
          "internalType": "bytes32",
          "name": "",
          "type": "bytes32"
        }
      ],
      "stateMutability": "view",
      "type": "function",
      "constant": true
    },
    {
      "inputs": [
        {
          "internalType": "bytes32",
          "name": "_hash",
          "type": "bytes32"
        }
      ],
      "name": "registerContent",
      "outputs": [],
      "stateMutability": "nonpayable",
      "type": "function"
    },
    {
      "inputs": [
        {
          "internalType": "bytes32",
          "name": "_originalHash",
          "type": "bytes32"
        },
        {
          "internalType": "bytes32",
          "name": "_newHash",
          "type": "bytes32"
        }
      ],
      "name": "logEdit",
      "outputs": [],
      "stateMutability": "nonpayable",
      "type": "function"
    }
  ],
  "bytecode": "0x608060405234801561000f575f80fd5b506109278061001d5f395ff3fe608060405234801561000f575f80fd5b506004361061004a575f3560e01c80636369f0721461004e578063698472a01461007e578063790880871461009a578063f20ca12c146100b6575b5f80fd5b61006860048036038101906100639190610547565b6100e8565b6040516100759190610594565b60405180910390f35b610098600480360381019061009391906105ad565b610113565b005b6100b460048036038101906100af91906105eb565b61036c565b005b6100d060048036038101906100cb91906105eb565b610499565b6040516100df93929190610664565b60405180910390f35b6001602052815f5260405f208181548110610101575f80fd5b905f5260205f20015f91509150505481565b5f805f8481526020019081526020015f206002015403610168576040517f08c379a000000000000000000000000000000000000000000000000000000000815260040161015f906106f3565b60405180910390fd5b5f805f8381526020019081526020015f2060020154146101bd576040517f08c379a00000000000000000000000000000000000000000000000000000000081526004016101b490610781565b60405180910390fd5b3373ffffffffffffffffffffffffffffffffffffffff165f808481526020019081526020015f205f015f9054906101000a900473ffffffffffffffffffffffffffffffffffffffff1673ffffffffffffffffffffffffffffffffffffffff161461025c576040517f08c379a00000000000000000000000000000000000000000000000000000000081526004016102539061080f565b60405180910390fd5b60405180606001604052803373ffffffffffffffffffffffffffffffffffffffff168152602001828152602001428152505f808381526020019081526020015f205f820151815f015f6101000a81548173ffffffffffffffffffffffffffffffffffffffff021916908373ffffffffffffffffffffffffffffffffffffffff160217905550602082015181600101556040820151816002015590505060015f8381526020019081526020015f2081908060018154018082558091505060019003905f5260205f20015f90919091909150557f653c44d2399ff811594f127c0ab3b8029ae46ac25797381829ec9cabed3b93248282336040516103609392919061082d565b60405180910390a15050565b5f805f8381526020019081526020015f2060020154146103c1576040517f08c379a00000000000000000000000000000000000000000000000000000000081526004016103b8906108ac565b60405180910390fd5b60405180606001604052803373ffffffffffffffffffffffffffffffffffffffff168152602001828152602001428152505f808381526020019081526020015f205f820151815f015f6101000a81548173ffffffffffffffffffffffffffffffffffffffff021916908373ffffffffffffffffffffffffffffffffffffffff16021790555060208201518160010155604082015181600201559050507fa5e72f4774d92dec447fafe42d9b03aa22f9818a8f8e378f52dcf6afd759d316813360405161048e9291906108ca565b60405180910390a150565b5f602052805f5260405f205f91509050805f015f9054906101000a900473ffffffffffffffffffffffffffffffffffffffff16908060010154908060020154905083565b5f80fd5b5f819050919050565b6104f3816104e1565b81146104fd575f80fd5b50565b5f8135905061050e816104ea565b92915050565b5f819050919050565b61052681610514565b8114610530575f80fd5b50565b5f813590506105418161051d565b92915050565b5f806040838503121561055d5761055c6104dd565b5b5f61056a85828601610500565b925050602061057b85828601610533565b9150509250929050565b61058e816104e1565b82525050565b5f6020820190506105a75f830184610585565b92915050565b5f80604083850312156105c3576105c26104dd565b5b5f6105d085828601610500565b92505060206105e185828601610500565b9150509250929050565b5f60208284031215610600576105ff6104dd565b5b5f61060d84828501610500565b91505092915050565b5f73ffffffffffffffffffffffffffffffffffffffff82169050919050565b5f61063f82610616565b9050919050565b61064f81610635565b82525050565b61065e81610514565b82525050565b5f6060820190506106775f830186610646565b6106846020830185610585565b6106916040830184610655565b949350505050565b5f82825260208201905092915050565b7f4f726967696e616c20636f6e74656e74206e6f7420726567697374657265642e5f82015250565b5f6106dd602083610699565b91506106e8826106a9565b602082019050919050565b5f6020820190508181035f83015261070a816106d1565b9050919050565b7f4e657720636f6e74656e7420616c7265616479207265676973746572656420615f8201527f73206f726967696e616c2e000000000000000000000000000000000000000000602082015250565b5f61076b602b83610699565b915061077682610711565b604082019050919050565b5f6020820190508181035f8301526107988161075f565b9050919050565b7f4f6e6c7920746865206f726967696e616c2075706c6f616465722063616e20655f8201527f646974207468697320636f6e74656e742e000000000000000000000000000000602082015250565b5f6107f9603183610699565b91506108048261079f565b604082019050919050565b5f6020820190508181035f830152610826816107ed565b9050919050565b5f6060820190506108405f830186610585565b61084d6020830185610585565b61085a6040830184610646565b949350505050565b7f436f6e74656e7420616c726561647920726567697374657265642e00000000005f82015250565b5f610896601b83610699565b91506108a182610862565b602082019050919050565b5f6020820190508181035f8301526108c38161088a565b9050919050565b5f6040820190506108dd5f830185610585565b6108ea6020830184610646565b939250505056fea26469706673582212205d788f0b4b94f4848f75baa18e0281b3445db78144370b038b4846a149d2be6c64736f6c63430008150033",
  "immutableReferences": {},
  "source": "// SPDX-License-Identifier: MIT\npragma solidity ^0.8.0;\n\ncontract ContentContract {\n    struct Content {\n        address uploader;\n        bytes32 hash;\n        uint256 timestamp;\n    }\n\n    mapping(bytes32 => Content) public contents;\n    mapping(bytes32 => bytes32[]) public editHistories;\n\n    event ContentRegistered(bytes32 contentHash, address uploader);\n    event ContentEdited(bytes32 originalContentHash, bytes32 newContentHash, address editor);\n\n    // Ensure that the content is being registered for the first time\n    function registerContent(bytes32 _hash) public {\n        require(contents[_hash].timestamp == 0, \"Content already registered.\");\n        contents[_hash] = Content(msg.sender, _hash, block.timestamp);\n        emit ContentRegistered(_hash, msg.sender);\n    }\n\n    // Log edits and ensure that only the original uploader can edit the content\n    function logEdit(bytes32 _originalHash, bytes32 _newHash) public {\n        require(contents[_originalHash].timestamp != 0, \"Original content not registered.\");\n        require(contents[_newHash].timestamp == 0, \"New content already registered as original.\");\n        require(contents[_originalHash].uploader == msg.sender, \"Only the original uploader can edit this content.\");\n        contents[_newHash] = Content(msg.sender, _newHash, block.timestamp);\n        editHistories[_originalHash].push(_newHash);\n        emit ContentEdited(_originalHash, _newHash, msg.sender);\n    }\n}\n",
  "sourcePath": "/Users/walterwagude/Desktop/iTransition/gpt-pilot/workspace/Block_Verify/contracts/ContentContract.sol",
  "compiler": {
    "name": "solc",
    "version": "0.8.21+commit.d9974bed.Emscripten.clang"
  },
  "schemaVersion": "3.4.16",
  "updatedAt": "2024-04-24T13:20:50.358Z",
  "networkType": "ethereum",
  "devdoc": {
    "kind": "dev",
    "methods": {},
    "version": 1
  },
  "userdoc": {
    "kind": "user",
    "methods": {},
    "version": 1
  }
}